:020000040800F2
:10000000C818002075020008773A0008AB370008CE
:10001000753A0008FB1B0008BF57000800000000ED
:10002000000000000000000000000000213E000869
:100030007D1C0008000000001F3E0008233E000851
:100040008F0200088F0200088F0200088F0200084C
:100050008F0200088F0200088F0200088F0200083C
:100060008F0200088F0200088F0200088F0200082C
:100070008F0200088F0200088F0200088F0200081C
:100080008F0200088F0200088F0200088F0200080C
:10009000295700088F0200088F0200088F0200080D
:1000A0008F0200088F0200088F0200088F020008EC
:1000B0008F0200088F020008000000008F02000875
:1000C0008F02000800000000000000008F020008FE
:1000D00000000000B5400008C1400008000000001A
:1000E0008F0200088F0200088F02000800F002F85B
:1000F00000F0B0F80AA090E8000C82448344AAF112
:100100000107DA4501D100F0A5F8AFF2090EBAE80F
:100110000F0013F0010F18BFFB1A43F0010318473B
:1001200078590000985900000A444FF0000C10F86C
:10013000013B13F0070408BF10F8014B1D1108BF65
:1001400010F8015B641E05D010F8016B641E01F805
:10015000016BF9D113F0080F1EBF10F8014BAD1C55
:100160000C1B09D16D1E58BF01F801CBFAD505E073
:1001700014F8016B01F8016B6D1EF9D59142D6D3CD
:10018000704700000023002400250026103A28BFF5
:1001900078C1FBD8520728BF30C148BF0B607047F9
:1001A0006E2900F06981702900F0B382662905F09C
:1001B000DB83652905F0D883672905F0D58361299C
:1001C00005F0D48303681B0A28BF41F08001692928
:1001D00000F01681642900F01381752900F0108168
:1001E0006F2900F04082782900F07F82E92900F031
:1001F000DB81E42900F0D881F52900F0D581EF29D1
:1002000000F03D82F82900F07E820368DB0928BFF8
:1002100041F08001632900F08187732900F086870F
:10022000E32900F09187F32900F0968700207047BA
:100230001FB500F0E3FF04000020002105F07EFB65
:10024000401C60600020002105F062FBE0601FBDE3
:1002500010B510BD00F0A4FF1146FFF7E9FF05F04F
:10026000DBFA01F081F803B4FFF7F2FF03BC01F001
:10027000C9F800000948804709480047FEE7FEE743
:10028000FEE7FEE7FEE7FEE7FEE7FEE7FEE7FEE746
:1002900004480549054A064B70470000A33E000884
:1002A000ED000008C8120020C8180020C814002063
:1002B000C81400207CB51D4616460C00009001D0E5
:1002C0002044401E074B7B442A4669460190304635
:1002D00000F0EBF805461CB10020694600F0F8F884
:1002E00028467CBD110200004FF0000200B5134605
:1002F00094469646203922BFA0E80C50A0E80C5046
:10030000B1F12001BFF4F7AF090728BFA0E80C50F6
:1003100048BF0CC05DF804EB890028BF40F8042BEF
:1003200008BF704748BF20F8022B11F0804F18BF5C
:1003300000F8012B704770477047704770B504464E
:1003400085690068C10601D5302600E02026C00777
:1003500007D070BDD4E9012130469047206A401C87
:1003600020626D1EF6D570BD70B5044685690078B3
:10037000C00707D170BDD4E9012120209047206A31
:10038000401C20626D1EF6D570BD09684A0501D576
:1003900040B27047C905FCD500B2704709684A05EC
:1003A00001D5C0B27047C905FCD580B2704770B5A1
:1003B0000C460546012A05D02878800600D5EA6952
:1003C000002302E0012305E05B1C934202D2E05CC3
:1003D0000028F9D1A869E618C01AA861286A18444B
:1003E00028622846FFF7AAFF04E0D5E9012114F8A6
:1003F000010B9047B442F8D32846FFF7B5FF70BD14
:100400002DE9F0410646002410687529314616A5ED
:1004100010D0FFF7BAFF002802DA404213A507E028
:1004200031688A0701D512A502E0490704D511A554
:10043000012401E0FFF7B2FF00210A2206F12407A0
:1004400009E0B0FBF2FCB0FBF2F302FB1C00303021
:1004500078541846491C0028F3D123462A463046D2
:10046000BDE8F04100F069BA000000002D00000076
:100470002B0000002000000011680268006A53058C
:1004800001D508700AE0D30501D5088006E01306FF
:1004900003D5C217C1E9000200E0086001207047DF
:1004A00001694A1C02610878704700B58FB0CDE938
:1004B00001310021059105497944CDE90310114628
:1004C000684600F031F90FB000BD0000E5FFFFFF06
:1004D0000A6802F8010B0A607047D1E900239A42CA
:1004E00002D2531C0B601070704700002DE9FF5FB3
:1004F00015468A460446DFF8AC80F8440027D8E960
:1005000000103E46CDE9001010E03AF816106A4699
:1005100002A800F025FE411C07D02178890603D5EA
:10052000E269391891420DD80744761C207880067C
:1005300002D5E069B84205DDAE42E6DB3AF81600C6
:100540000028E2D1A069C01BA0612046FFF7F6FE9B
:10055000D8E90010CDE90010002017E03AF8181093
:100560006A4602A800F0FCFDB0F1FF3F81460BD0C7
:1005700000250DF1080B05E0D4E901211BF8050069
:1005800090476D1C4D45F7D308F10100B0428046FD
:10059000E4DB206A384420622046FFF7E5FEBDE830
:1005A000FF9F00009E5400002DE9F0418046D21DBF
:1005B00022F007020025D2E90002F52915A614D081
:1005C000011E72F1000106DA0023D0EB030063EB99
:1005D000020211A608E0D8F800108B0701D50FA67B
:1005E00002E0490701D50EA601251146002408F1B5
:1005F000240704E000F05CF930323A55641C50EAFC
:100600000102F7D12B46324621464046BDE8F04173
:1006100000F093B9000000002D0000002B00000046
:100620002000000030B4002100F1240408E002F0B2
:100630000705D208303542EA4372DB086554491C8D
:1006400052EA0305F3D10468002310A2250707D559
:10065000A40600D421B1C46901230DA2641EC461A3
:1006600030BC00F06AB910B5044621461068FFF7A7
:1006700095FE02462046BDE810400023D2E7D21D79
:1006800022F00701D1E90023CCE7000000000000C0
:1006900030000000F0B40D460188090502D5214C58
:1006A0007C4402E01F4C7C440E34002100F12406FF
:1006B00008E002F00F071209E75D42EA03721B0926
:1006C0007754491C52EA0307F3D10278002312073A
:1006D00004D5702D06D009B1022311342246F0BC96
:1006E00000F02BB901231034F8E770B504460D462D
:1006F00021461068FFF752FE024629462046BDE813
:1007000070400023C6E7D21D22F00703D3E900237F
:10071000C0E70368126843F0200303600823C36145
:100720000023B7E7005300002DE9F05F8946044637
:100730004FF0000ADFF874B1FB44C0F820A0204657
:10074000E1688847002874D0252806D0D4E9012123
:100750009047206A401C2062F1E700265F46204651
:10076000E16888472028054607DB312D05D2781936
:1007700010F8200C08B10643F1E7B00701D526F0C8
:100780000406C4F81CA00027C4F818A02A2D09D01C
:10079000284605F039F838B304EB8708303DC8F82F
:1007A000185019E059F8041B204604EB87029161A8
:1007B000E1688847012F054618D1E069002820DA52
:1007C00026F020061DE0D8F8180000EB800005EBAD
:1007D00040003038C8F818002046E16888470546D0
:1007E00005F012F80028EED1012F0AD02E2D08D1E5
:1007F0002046E16888477F1C0546022F46F0200608
:10080000C4DBA069002803DA404246F00106A0617B
:10081000F00701D026F010066C2D0BD0682D09D002
:100820004C2D39D06A2D35D0742D35D07A2D33D05A
:1008300016E038E0E1682F4620468847B842054672
:1008400009D16C2F26D04FF48060E1680643204622
:100850008847054604E06C2F1AD04FF48070064399
:100860000DB3A5F14100192802D8203546F40066E1
:100870004A462946204626604E46FFF791FC80B145
:1008800001280BD0F61D26F0070000F1080956E7F5
:100890004020E4E78020D8E70020D6E706F10409ED
:1008A0004DE7284652E7206ABDE8F09F90520000CD
:1008B00030B5B0F10A024FEA900E71F100034EEA32
:1008C000817EB0EB0E0061EB91014FEA101E4EEA03
:1008D000017E10EB0E0041EB11114FEA102E4EEA93
:1008E000016E10EB0E0041EB11214FEA104E4EEA63
:1008F000014E10EB0E0041EB1141401841F1000197
:100900004FEAD00040EA41704FEAD10110EB800578
:100910004FEA810444EA907444EB01046D1944EBFE
:100920000404521BA3414FF0000348BF0A3200D514
:1009300030BD401C41F1000130BD2DE9F0470D46AE
:1009400099469246044600F124080168880604D5B9
:10095000E06921F01001216000E00120A84201DDE2
:10096000471B00E00027A1697A1902EB0900081A69
:10097000A0612078C00602D42046FFF7DFFC0026E5
:1009800008E0D4E901211AF806009047206A401CCB
:10099000761C20624E45F4DB2078C0060AD520463E
:1009A000FFF7CCFC06E0D4E9012130209047206A13
:1009B000401C2062381EA7F10107F4DC07E0D4E9EF
:1009C000012118F805009047206A401C2062281E6B
:1009D000A5F10105F3DC2046FFF7C6FC20780006F0
:1009E00002D50220BDE8F0870120FBE770472DE922
:1009F000FF4F0C461E464FF0FF378BB0D2E9000187
:100A0000DDF860800A908A46C1F30A5505B93D4673
:100A1000002108464FF00000BAF1000F00F440003A
:100A200005DA00EB80004FF4400101EA50004FEA84
:100A30009059B9F1010F00DDB9460A9850EA4A0011
:100A40000ED044F61050A5F2FF3545432F14B8F1EF
:100A5000000F1ED07542291E1EDDC9F100021CE0E8
:100A6000B8F1010F4FF0000001D0302103E0F24354
:100A700005E02154401CB042FBDB3046002200213F
:100A800021540B99C1F80880C1E900200FB0BDE8DE
:100A9000F08FBD1B6D1CDEE74A4600DA694206A8EE
:100AA00000F0F0FB06AB93E8070003AB83E8070018
:100AB00050460A9900F0ADFC8DE80700A0F5005003
:100AC0001F3800900398002D0ADD42F21F014A46AC
:100AD0000844002303A90390684600F016FF09E0CC
:100AE000A0F500504A461F38002303A9039068462A
:100AF00000F020FF8DE807000004000C03D04FF049
:100B0000FF30410800E01046B8F1000F03D000228A
:100B1000009215461EE0751E05D4FFF7C9FE30325F
:100B200062556D1EF9D5B3460122084302D000225A
:100B30007F1C04E02078302801D100227F1E002A8B
:100B4000099784D01DE0112D07DAFFF7B1FE30328E
:100B500062556D1C50EA0102F5D1084302D000989D
:100B6000C8B10EE00021681E05E0235C625C63549E
:100B70002254401E491C8142F7DBAB46A81B401E95
:100B80000990002004F80B000B98099AC0F808801F
:100B9000C0E9002B7AE711264FF0000857E72DE94E
:100BA000F04F88460446D21D22F0070191B0D1E9EA
:100BB0000001CDE90A0104F003FE02460B98C00FC4
:100BC00001D02D2007E02068810701D52B2002E00D
:100BD000202101EAC000032A099001D0072A05DB81
:100BE00003464146204600F00DFB0BE120788006CD
:100BF00001D5E06900E00620B8F1650F814606D016
:100C0000B8F1660F18D0B8F1670F70D131E000204D
:100C1000B9F1110F009001DB112301E009F101038B
:100C20000AAA01A90CA8FFF7E2FEDDE90C70002674
:100C300009F10105834647E001204B4600904FF043
:100C400000470AAA01A90CA8FFF7D1FEDDE90DB003
:100C50000C995D46002610B909F101000D18B9EB99
:100C6000050003D4C0F1FF3609F10105A5EB090029
:100C70002BE0B9F1010F01DA4FF001090020B9F1C1
:100C8000110F0090484601DD112300E003460AAA37
:100C900001A90CA8FFF7ABFEDDE90C704D4600265C
:100CA0008346207800070AD4AB4500DA5D4601A8E8
:100CB000012D04DD411911F8011C302907D04F45E1
:100CC00002DA17F1040F04DA012082460FE06D1EEC
:100CD000EEE7002F02DCED1B3E4403E0781CA84247
:100CE00000DD7D1CB81B00F1010A4FF000472078A1
:100CF000000703D4AA4501DB4FF0FF3A0021B7F10A
:100D0000004F0DF143088DF8431024D002202B230F
:100D1000002F01DA7F422D230A21021EA0F10100DB
:100D200000DC5FB197FBF1FC97FBF1F201FB1C7C4F
:100D300017460CF1300C08F801CDEEE7A8F10100E0
:100D400003702188090501D5452100E06521A0F146
:100D5000010800F8011C09980FA9A1EB0807FF1D65
:100D600000B10120411901EBEA70A1693844081A69
:100D7000401EA0612078C00602D42046FFF7DEFAAC
:100D8000099828B1D4E901219047206A401C2062CB
:100D90002078C00622D52046FFF7D0FA1EE0002EAC
:100DA00004DBB34502DD01A8805D00E03020D4E91A
:100DB00001219047206A401C2062761CAAF10100A4
:100DC0005FEA000A0AD100F019FAC0680168405CC5
:100DD000D4E901219047206A401C2062281EA5F119
:100DE0000105DCDC07E0D4E9012118F8010B90478C
:100DF000206A401C2062381EA7F10107F3DC204660
:100E0000FFF7B2FA032011B041E600002DE9F04FE0
:100E100004460D46D21D22F0070089B0D0E90097A4
:100E20004846394604F0CCFC0246F80F01D02D2389
:100E300007E02068810701D52B2302E0202101EA89
:100E4000C0038DF820300BB1012000E00020032A00
:100E5000824601D0072A04DB2946204600F0D2F959
:100E60003FE12078800601D40D2500E0E569C7F355
:100E70000A560D2D49DA00214FEA175B08464FF05C
:100E80000000002F00F4400007DA00EB80004FF470
:100E9000400100EBD07001EA60008115012901DDFD
:100EA0004FF0FF3100224FEA850CBCF1180F06D33A
:100EB0001346ACF118004FF08052C24003E04FF4EB
:100EC000801323FA0CF30CF10C0CBCF1200F04D3AB
:100ED000ACF1200C09FA0CF001E007FA0CF0002943
:100EE0004FF0004801DD18B90FE00ED140450CD39A
:100EF00019EB02095F4121B9404502D19F4329EA1C
:100F00000209BBEB175F00D0761C2088000502D5D4
:100F10007B48784402E07A487844193808AA30239C
:100F200002F80A30037C0AF10101002E0AF1020ADC
:100F300053546A4602DC4FF0300101E04FF03101BA
:100F40004FF001088DF8001002D0A6F2FF3603E042
:100F500059EA470100D06B4E002D02DC21780907C9
:100F600004D54FF002082E218DF80110C44600214F
:100F70000BE0C7F303433F01C35C491C6D1E02F83D
:100F80000830052908F1010801DA002DF1DC002103
:100F90000CE000EB1973491C1B786D1E082902F840
:100FA00008304FEA091908F1010801DA002DF0DCD8
:100FB00021688B0602D516E0A8F10108E04505DDA1
:100FC00002EB080313F8013C302BF5D0B8F1000F09
:100FD00009DD02EB080313F8013C2E2B03D10907AE
:100FE00001D4A8F10108002D05DD3E2102F808100A
:100FF0006D1E08F10108407C002E02F8080008F17F
:10100000010804DA2D20764202F8080002E02B20C5
:1010100002F808000A214FF47A70864208F10108AC
:101020000BDB96FBF0F3303302F8083096FBF0F35D
:1010300008F1010800FB136601E0642E0CDB64205C
:1010400096FBF0F3303302F8083096FBF0F308F12A
:10105000010800FB136601E00A2E06DB96FBF1F0A7
:10106000303002F8080008F1010896FBF1F001FBAE
:101070001060303002F80800A16908F1010808EB9F
:10108000050202EB0A00081AA0612078C00602D40B
:101090002046FFF753F9216A08AE01EB0A002062EF
:1010A00004E0D4E9012116F8010B9047BAF1010AD6
:1010B000F7D22078C00602D52046FFF73FF96E46EA
:1010C00009E016F8010B3E280FD0D4E90121904722
:1010D000206A401C2062B8F10108F2D22046FFF7D6
:1010E00043F909B00320BDE8F08F206A284420624C
:1010F00003E0D4E90121302090476D1EEBD3F8E7DF
:10110000DA4A000002FCFFFF10B5436913B1AFF3E8
:10111000008001E0FFF74BF9012010BD127800F1CB
:1011200024010A7000224A700122EDE711684FF095
:10113000FF32E9E710B5436913B1AFF3008001E076
:10114000FFF7D4F9012010BD128800F12401828438
:101150000022C2840122EDE711684FF0FF32E9E777
:1011600070B516460C46054600F040F8036893F843
:101170000101012806D0FF2C0FD8185D68B10120AD
:101180002C7070BDD3F807013246214603F20713D5
:1011900003442846BDE8704018474FF0FF3070BD4B
:1011A000754600F0EBF8AE4605006946534620F060
:1011B0000700854618B020B5FFF76AF8BDE8204063
:1011C0004FF000064FF000074FF000084FF0000B03
:1011D00021F00701AC46ACE8C009ACE8C009ACE8B6
:1011E000C009ACE8C0098D467047000010B500F09A
:1011F00005F8001D10BD00BF4547000000487047BE
:10120000841200202DE9F0411F46044603260168A0
:10121000072A01F4006004DB08B116A505E016A555
:1012200003E008B115A500E015A521F0100020602D
:10123000A069C01EA0610FB1401EA0612046FFF74B
:101240007DF84FB1D4E9012138469047206A401C0F
:101250002062C01C206206E0206AFAE7D4E901217E
:1012600015F8010B9047761EF8D22046FFF77CF860
:10127000BDE8F0814E414E006E616E00494E460061
:10128000696E66002DE9F047814616468AB03548FA
:1012900078440DC88DE80D0032487844801C03ACBA
:1012A0000DC884E80D0041F69B300844372190FBBF
:1012B000F1F290FBF1F5A5F1800501FB12041B3C56
:1012C00002D56442012000E00020DFF898A08046AB
:1012D0000027FA44AAF1BE0A0EE0E0070AD032461F
:1012E000684607EB470101230AEB810100F022FB6E
:1012F0008DE8070064107F1C002CEED1194F7F444D
:10130000AE3F19E0E80715D007EB04100DF1180AFD
:1013100090E80E008AE80E00C068F04201D19819EA
:1013200008903246012306A903A800F003FB03AB93
:1013300083E807006D10641C002DE3D14FF001031A
:1013400032466946B8F1000F03A802D000F0DDFA7A
:1013500001E000F0EFFAC9E90001C9F808200AB07D
:10136000BDE8F087EC47000010B50446AFF30080FD
:101370002046BDE81040FEF776BF000000487047E9
:10138000641200204FF0013C50F8042B51F8043B4C
:101390009A4221D1A2EB0C03934313EACC1317D149
:1013A00050F8042B51F8043B9A4215D1A2EB0C03E0
:1013B000934313EACC130BD150F8042B51F8043BA0
:1013C0009A4209D1A2EB0C03934313EACC13DBD06E
:1013D0004FF00000704700BFD01A01BAB1FA81F196
:1013E00001F0180122FA01F0CB40C1F12001DBB27B
:1013F000C0B2C01A2CFA01F3D11A914311EAC311F9
:10140000E6D1704701491820ABBEFEE72600020076
:1014100070475FEA400C08BF91F0000F4FEA8C2341
:101420004FEAC12243EA51514FEA1C5018BF00F560
:10143000F0404FEA300018BF41F000415FEA6C5CB9
:1014400000F02980BCF1FF3F08BF40F080407047AA
:10145000130C06BF12044FF0100C4FF0000C130ECB
:1014600004BF12020CF1080C130F04BF12010CF19F
:10147000040C930F04BF92000CF1020CD30F04BFB5
:1014800052000CF1010C11464FF00002A0F11F00B8
:10149000A0EB0C00704711F0004F08BF704731F00F
:1014A00000413FF4D5AF0B0C06BF09044FF0100C00
:1014B0004FF0000C0B0E04BF09020CF1080C0B0FCF
:1014C00004BF09010CF1040C8B0F04BF89000CF15F
:1014D000020CCB0F04BF49000CF1010CCCF120032E
:1014E000A0EB0C0022FA03F302FA0CF241EA03012A
:1014F00000F10100704720F07F4C80EA030023F0E8
:101500007F47ACEB070303F57C5300F0004003F189
:10151000FF032DE980494FEA154B09B44FEA144304
:1015200025EA0B4E24EA03480FF2042606EB1327A4
:1015300049083E785FEA320203FB0667C7F50007F9
:1015400007FB06F64FEA54374FEAD64606F1020685
:1015500007FB066CCCF1005C4FEA1C472CEA074CF9
:1015600007FB06F40CFB06F504EB15464FEA96164E
:1015700034BF00204FF000404FEAD13706FB07FC94
:101580004FEA1C4C0CFB0BF7D21B03FB0CF761EB77
:1015900007010CFB0EF7B0EB074072EB17420CFB98
:1015A00008F734BFA2EB0742B2EB074261EB1741E9
:1015B0004FEA0C444FEA910706FB07FC4FEA1C4C2C
:1015C0000CFB0BF7B0EBC74072EB573203FB0CF789
:1015D00034BFA2EBC742B2EBC74261EB57310CFB01
:1015E0000EF7B0EBC70072EB57720CFB08F734BF75
:1015F000A2EBC702B2EBC70261EB5771039F4FEA40
:10160000816141EA921104EBCC044FEAD1374FEAF1
:10161000826206FB07FC42EA90124FEA80604FEAC2
:101620001C4C0CFB0BF7D21B03FB0CF761EB070107
:101630000CFB0EF7B0EB074072EB17420CFB08F700
:1016400034BFA2EB0742B2EB074261EB17414FEA0E
:101650008C554FEA910704EB9C2406FB07FC4FEAEC
:101660001C4C0CFB0BF7B0EBC74072EB573203FB83
:101670000CF734BFA2EBC742B2EBC74261EB573164
:101680000CFB0EF7B0EBC70072EB57720CFB08F7C0
:1016900034BFA2EBC702B2EBC70261EB577115EB87
:1016A0004C254FEA816141EA92114FEA82624FEA8A
:1016B000D13742EA901206FB07FC44F100044FEADE
:1016C00080604FEA1C4C0CFB0BF7D21B03FB0CF7A2
:1016D00061EB07010CFB0EF7B0EB074072EB174212
:1016E0000CFB08F734BFA2EB0742B2EB074261EBF9
:1016F000174115EB1C154FEA813141EA92414FEA3F
:10170000823242EA90424FEA80304FEA0C7644F14E
:10171000000448EA03434EEA0B484FF0000EB2EBD8
:10172000080C71EB030724BF624639464EEB0E0EE0
:101730004FF0000B0018524149414BEB0B0BB2EB41
:10174000080C71EB03077BF1000B24BF624639469E
:101750004EEB0E0E4FF0000B0018524149414BEB7F
:101760000B0BB2EB080C71EB03077BF1000B24BFF2
:10177000624639464EEB0E0E51EA020718BF46F09C
:10178000010616EB0E7655F1000254F1000103D567
:10179000BDE88901BDE80088BDE88901BDE80048D1
:1017A000B619524141EB0101A3F10103704780805A
:1017B0007F7E7D7C7B7A79787776767574737271AB
:1017C00071706F6E6E6D6C6C6B6A6A696868676663
:1017D00066656464636362616160605F5F5E5E5DF5
:1017E0005D5C5C5B5B5A5A59595858575756565569
:1017F00055555454535352525251515050504F4FCB
:101800004F4E4E4D4D4D4C4C4C4B4B4B4A4A4A491A
:10181000494948484847474747464646454545445D
:101820004444444343434342424242414141002BEA
:101830009C4630D477002BD01CB54FEA370703B451
:101840004FF010004FF01001BAF1000F06D0BCF1BC
:10185000000FDCBF40F0080040F008014FF000002E
:101860000FBCBDE810400BF1010BBBF1010F08BF2D
:101870005FEA170722BF12F1010211F101014FF0D7
:10188000004143F1000300F0004043EA00007047CC
:10189000F9D35708D0E746EA064613F1400F4FEA5E
:1018A00016461FDD13F1200FDFBF16430A46002145
:1018B00020335B42BED0C3F1200746EA064602FA57
:1018C00007F74FEA164646EA0706C3F1200722FA51
:1018D00003F201FA07F721FA03F14FF0000342EA9D
:1018E0000702A7E746EA020646EA06464FEA164618
:1018F00046EA0106BCBF46EA0646360C4FF0000336
:101900004FF000024FF0000194E72DE9804C9A4619
:10191000934670B491E8380007C831EA400C48BFDC
:1019200034EA430C03D5FFF7E6FDFFF780FFF0BC78
:10193000BDE8008C2DE9804C9A46934670B491E83E
:10194000380007C810F0804F08BF13F0804F03D154
:1019500000F005F8FFF76BFFF0BCBDE8008C20F04D
:101960007F4780EA030023F07F4C07EB0C03A3F5CD
:101970007C5300F00040A3F1FE0392F0000F00F052
:10198000B38095F0000F00F077802DE901494FEA10
:1019900011404FEA144621EA004800FB06FC24EA05
:1019A000064708FB06F607FB08F800FB07F718EBED
:1019B00006484CEB164C4FEA124B18EB07484FEA1F
:1019C00015464CEB174022EA0B4E0BFB06FC25EAB2
:1019D00006470EFB06F607FB0EFE0BFB07F71EEB9A
:1019E000064E4CEB164C4FF000061EEB074E4CEB30
:1019F000174B18EB0B0840F1000018EB0E0B58EBDF
:101A0000000840F100008F1A4FF000013CBFC943AD
:101A1000661B14BFB5EB040C00213CBFC943F61B89
:101A20004FEA17444EEA8E0E27EA04454FEA1C4758
:101A300004FB07622CEA074C05FB07F70CFB05F6D5
:101A400004FB0CFC16EB074642EB174216EB0C4668
:101A500042EB1C421BEB060658EB0202414146EAF0
:101A60009E0601D5BDE80189B619524141EB01013D
:101A7000A3F10103BDE801894FEA14454FEA11477C
:101A800024EA054621EA074C05FB07F406FB07F7A5
:101A90000CFB06F105FB0CFC11EB074144EB174472
:101AA0004FEA124711EB0C4144EB1C4422EA074C6D
:101AB00005FB07F206FB07F70CFB06F605FB0CFC23
:101AC00016EB074642EB174216EB0C4642EB1C4561
:101AD0006A1854F1000148BF7047B619524141EBF2
:101AE0000101A3F10103704795F0000F37D04FEAD1
:101AF00011424FEA144721EA024624EA074C02FB4E
:101B000007F106FB07F70CFB06F402FB0CFC14EBD9
:101B1000074441EB17414FEA154714EB0C4441EBE6
:101B20001C4125EA074C02FB07F506FB07F70CFBF7
:101B300006F602FB0CFC16EB074645EB174516EBC9
:101B40000C4645EB1C42121951F1000148BF704789
:101B5000B619524141EB0101A3F1010370474FEA6D
:101B600014454FEA114724EA054621EA074C05FBD4
:101B700007F106FB07F70CFB06F24FF0000605FB2A
:101B80000CFC12EB074241EB174112EB0C4251EBFC
:101B90001C4148BF7047921841EB0101A3F10103BA
:101BA0007047000070B5044600688168C943C907E2
:101BB00017D1816821F00101816000F0EBFA054640
:101BC0000AE000BF00F0E6FA401B022804D92068B2
:101BD0008068C043C00706D020688068C043C00743
:101BE000F0D0002070BDA06A40F01000A062E06A52
:101BF00040F00100E062012070BDFEE70020704768
:101C00000020704710B500220449054802F050FB3F
:101C10000449034802F046FB002010BD6C0B002075
:101C2000A80400206C09002070B50D46044601464A
:101C3000064802F037FB054802F018FB288881B2FD
:101C4000204600F005F8002070BD0000A804002028
:101C5000094A10B5D2F8B822D2F814220AB10120EC
:101C600010BD0A460146044802F022FBBDE81040C0
:101C7000014802F07BBB0000A8040020704772B648
:101C8000FEE70000F8B50024009490F824202546D3
:101C9000012A12D0012280F824204A681F23072A33
:101CA0000DD20668776B521E02EB820293409F436F
:101CB0000B6893401F43776319E00220F8BD066864
:101CC0000D2A0AD2376BD21F02EB820293409F4348
:101CD0000B6893401F43376309E0F76A0D3A02EB44
:101CE000820293409F430B6893401F43F7620A6848
:101CF000072306680A2A0AD3F7680A3A02EB420267
:101D000093409F438B6893401F43F76008E0376917
:101D100002EB420293409F438B6893401F4337611D
:101D20000A68102A01D0112A20D1124B02689A4267
:101D300017D193681B0219D4936843F4000393608E
:101D40000968102912D10C490C4A0968B1FBF2F15B
:101D500001EB8101490000E0491E00910029FBD1FF
:101D600004E0816A41F020018162012480F824505E
:101D70002046F8BD002401407000002040420F00C2
:101D80002DE9F0414FF0000704003D467ED0A06AE7
:101D9000002628B9E66284F82460204600F07EF828
:101DA0002046FFF7FFFEA16AC90600D420B1A06A51
:101DB00040F01000A06269E0A16A21F4885141F06E
:101DC0000201A1626268E169237B0A4347EA430199
:101DD0000A43A1684FF48077B94209D0012907D09E
:101DE0005FF0000194F814C0BCF1010F02D00AE0CA
:101DF0003946F7E7F3B1A36A43F02003A362E36A2D
:101E000043F00103E3622368D3F804C02CF4694C67
:101E10004CEA010CC3F804C021688B68DFF870C07D
:101E200003EA0C0313438B60A168B9420BD001296C
:101E300009D00CE0DFF85CC0A3690CEB43330B4323
:101E400043F40061DFE7218A0D05A5F580152168BF
:101E5000CB6A23F470032B43CB62216889680E4B55
:101E60001940914208D1E662A16A21F0020141F0D5
:101E70000101A162BDE8F081A06A20F0020040F0FB
:101E80001000A062E06A40F00100E0620120F1E78A
:101E9000FDF7E1FF00E0FFFFFE0E1FFF08B5006841
:101EA0000649884208D10648816941F40071816180
:101EB000806900F40070009008BD0000002401401B
:101EC0000010024010B590F821100022022905D020
:101ED0000421816380F82020012010BD01680B6877
:101EE00023F00E030B6001680B6823F001030B6005
:101EF00090F84030C46B012101FA03F3636080F86D
:101F0000211080F82020104610BD000010B590F878
:101F100021100024022903D00421816301243DE023
:101F200001680A6822F00E020A6001680A6822F05D
:101F300001020A601A4A0168914201D1012121E09F
:101F4000174A1432914201D110211BE0144A283261
:101F5000914201D1891515E0114A3C32914201D1DB
:101F600089140FE00E4A5032914202D14FF4803171
:101F700008E00B4A6432914202D14FF4801101E033
:101F80004FF08071064A083A5160012180F8211013
:101F9000002180F82010416B01B18847204610BD18
:101FA0000800024070B5044600F0F4F80546601CD5
:101FB00002D004480078044400F0ECF8401BA04232
:101FC000FAD370BD640000202DE9F84FDFF89C9132
:101FD0000024A9F1040B23460F2709F1040AABF1F1
:101FE000040EBBE00125A5402A40AA4276D1DFF8C5
:101FF00080C14E68A6EB0C0866452BD00DDC032E85
:1020000034D005DC36B3012E19D0022E2FD11BE0BF
:10201000112E16D0122E2AD119E0B8F5881F19D02A
:1020200006DCB8F5803F15D0B8F5801F1FD111E050
:10203000B8F5001F0ED0B8F5041F18D10AE0CB6820
:1020400015E0CB681B1D12E0CB6808330FE0CB68AE
:102050000C330CE08B682BB1012B4FF0080303D03D
:10206000456104E0042302E0056100E00023FF2A4B
:1020700001D8064601E000F104064FEA840501D9C3
:10208000A5F12005D6F8008007FA05FC28EA0C081F
:1020900003FA05F548EA0508C6F800804D68ED002A
:1020A0005BD5344DAE6946F00106AE61AD6924F0F2
:1020B000030605F0010500952F4D06EB050CDCF835
:1020C0000850A607360F07FA06F825EA0805DFF8D4
:1020D000AC80404503D14FF0000810E03DE0DFF850
:1020E000A080404502D14FF0010808E0DFF894805D
:1020F000404502D14FF0020801E04FF0030808FA12
:1021000006F848EA0508CCF808804D68D9F8006060
:10211000ED024D4601D5164300E096432E604D6812
:10212000DAF80060AD02554601D5164300E096434B
:102130002E604D68DBF80060AD035D4601D51643A7
:1021400000E096432E604D68DEF80060ED037546B2
:1021500001D5164300E096432E60641C0A6832FAEB
:1021600004F57FF43FAFBDE8F88F0000080401409C
:102170000000111000100240000001400008014062
:10218000000C0140001001400AB1016170470904D0
:10219000FBE70000014880687047000064000020F1
:1021A0000248816802781144816070476400002011
:1021B000074810B5016841F010010160032000F0EC
:1021C00075F80F2000F006F800F024F8002010BD8C
:1021D0000020024070B50D4D04464FF47A71287806
:1021E000B1FBF0F00A490968B1FBF0F001F088F8A2
:1021F00048B9102C07D200222146501E00F036F8B4
:1022000000206C6070BD012070BD000064000020E3
:10221000700000200C4808B5816941F0010181611E
:10222000816901F001010091C16941F08051C161F2
:10223000C06900F0805000900448416821F0E061DE
:1022400041F00071416008BD0010024000000140F3
:10225000002809DB00F01F020121914040098000A5
:1022600000F1E020C0F8001170470000F0B40E4B00
:102270001B680C46C3F30223C3F10705042D00D9E4
:102280000425191D072901D2002300E0DB1E0126C9
:1022900006FA05F1491E214099409E40761E1640DF
:1022A0003143F0BC03F0A0BA0CED00E0064900F0A9
:1022B000070208684FF6FF03184040EA0220034A6D
:1022C00010430860704700000CED00E00000FA05C4
:1022D00010B50C0607D501F0070101EB810100EBF9
:1022E000C100103005E001EB810100EBC10000F5F9
:1022F000A87099B232B1012202730181190C418197
:10230000002010BD00220273C180F9E7704701EB85
:10231000810200EBC202D0F8D402526A02F0D5B9B1
:1023200001EB810200EBC202D0F8D402D2F86421A2
:1023300002F02EBA70B504460B0601F0070000EB60
:10234000800104EBC1014FF001024FF0000502D5FE
:102350004A74103103E081F8515101F5A8710870F9
:1023600094F89002012808D084F89022206802F0A6
:102370006FFE84F89052002070BD022070BD70B5D1
:10238000044601F00F002279904201D9012070BD6E
:102390000B0601F0070000EB800104EBC1014FF0D8
:1023A00001024FF0000502D54A74103103E081F8B4
:1023B000515101F5A8718D70087094F890020128B0
:1023C00008D084F89022206802F0DFFE84F8905252
:1023D000002070BD022070BD2DE9F05F04685FEA47
:1023E000424C0B788D69B4F850C04FF000064BF6A4
:1023F0008F7948F2800A48F68F7B48F2C00E4FF47E
:1024000080672AD54FF0020808EBC308C44407EBE5
:102410004C07E45BC4F30904A54203D32D1B8D6173
:1024200001D00BE08E61066836F8235005EA0905F5
:1024300085F4005545EA0A0526F82350520609D5C9
:102440000D78036833F8252002EA0B0242EA0E02F7
:1024500023F8252084B30A8929E04FF0060808EB09
:10246000C308C44407EB4C07E45BC4F30904A5426A
:1024700003D32D1B8D6101D00BE08E61066836F809
:10248000235005EA090585F4005545EA0A0526F8B2
:102490002350520609D40B78056835F8232002EA48
:1024A0000B0242EA0E0225F823202CB14A89496921
:1024B0000068234603F042F92046BDE8F09F2DE96D
:1024C000F05F054600680C465FEA426C16468B6971
:1024D0002278B0F850C048F68F774CF280094FF45C
:1024E000004B4FF6FF7E4FF4806A4FF0000172D52B
:1024F0004FF0020808EBC208E0440AEB480C30F841
:102500000C00C0F30900834211D91B1AA3610FD03C
:10251000730407D52E6836F822303B4043EA09039E
:1025200026F8223094F82420012A47D052E1A161F4
:10253000607810B1012813D01AE02868B0F8503044
:10254000184400EB0210B0F80424C2F30902A0F80A
:102550000424B0F8042442F40042A0F8042407E064
:102560002868B0F85030184400EB0210A0F80414AA
:102570006278286812B1012A11D018E0B0F8501022
:102580000844217800EB0110B0F80C14C1F30901E4
:10259000A0F80C14B0F80C1441F4004105E0B0F8B8
:1025A00050201044227800EB0210A0F80C1421787F
:1025B0002846FFF7ACFE700472D40BE16269024456
:1025C0006261E2690244E2612369226A9A4203D3AA
:1025D0001846111A04E03EE084F824100AB11046AF
:1025E0002162617811B1012929D031E02968B1F85F
:1025F00050201144227801EB0211B1F80424C2F3F7
:102600000902A1F8042401F204413E2807D9420935
:10261000C30600D1521E0B884BEA822207E048B164
:102620004208C30700D0521C0B880EEA82221343D3
:102630000B800DE00A8842F400420A8008E0296815
:10264000B1F850201144227801EB0211A1F80404E2
:1026500083B22289BAE04FF0060808EBC208E044D2
:102660000AEB480C30F80C00C0F30900834211D388
:102670001B1AA3610FD0730407D42E6836F82230DA
:102680003B4043EA090326F8223094F82420012A2B
:1026900051D09FE0A161607818B1012814D01BE0EF
:1026A0003FE02868B0F85030184400EB0210B0F852
:1026B0000424C2F30902A0F80424B0F8042442F46C
:1026C0000042A0F8042407E02868B0F8503018440D
:1026D00000EB0210A0F804146278286812B1012AF5
:1026E00011D018E0B0F850100844217800EB011028
:1026F000B0F80C14C1F30901A0F80C14B0F80C14D4
:1027000041F4004105E0B0F850201044227800EB7D
:102710000210A0F80C1421782846FFF7F8FD700489
:1027200058D42278296831F82200384040EA09005C
:1027300021F822004EE0626902446261E2690244CB
:10274000E2612369226A9A4203D31846111A216270
:1027500004E00AB11046216284F8241062782968E6
:1027600012B1012A28D02FE0B1F85020114422786C
:1027700001EB0211B1F80C24C2F30902A1F80C24F8
:1027800001F20C413E2807D94209C30600D1521E6E
:102790000B884BEA822207E048B14208C30700D009
:1027A000521C0B880EEA822213430B800CE00A882D
:1027B00042F400420A8007E0B1F850201144227828
:1027C00001EB0211A1F80C04628983B261692868E7
:1027D00002F0D2FF2278296831F8220048F6BF7350
:1027E000184080F0300048F28003184321F822009E
:1027F0000020BDE8F09F01F0070101EB810100EB33
:10280000C100D0F86C0170472DE9F04104460F0675
:1028100001F0070000EB800104EBC1014FF001065D
:102820004FF0000502D54E74103103E081F851518C
:1028300001F5A871022B08700A61CB7000D10D71EF
:1028400094F89002012809D084F89062206802F080
:10285000AFFA284684F89052BDE8F0810220FBE7E9
:1028600010B501F0070404EB840100EBC101C1E9DC
:1028700059230022C1F86C2181F8512181F850417F
:10288000006801F5A87102F0D5FC002010BD70B5FC
:1028900004460D4601F007002179884201D9012044
:1028A00070BD29064FF000064FF0010206D500EB7F
:1028B000800104EBC1014A74103107E005EB85018A
:1028C00004EBC10181F8516101F5A8718A700870AB
:1028D00094F89002012807D084F89022206802F032
:1028E00090FC680702D006E0022070BD04F5267156
:1028F000206802F048FC84F89062002070BD10B59A
:1029000001F0070404EB840100EBC101C1E90923D4
:10291000012281F834200B630023CB624A7401F852
:10292000104F006802F086FC002010BD1FB5044661
:10293000006802F0FFFE010403D5204601F09CF878
:102940001FBD41050DD5206830F8441F21F480617A
:102950000180204600F000F90021204600F017F920
:102960001FBD410405D5206830F8441F21F4804183
:1029700074E0810405D5206830F8441F21F400512B
:102980006CE0C10414D5206830F8401F21F0040128
:102990000180206830F8401F21F0080101802046A6
:1029A00000F0EDF8206830F8441F21F4805155E024
:1029B000010540D5D4F800200020694632F82030C7
:1029C00021F81030401CC0B20828F7D332F8400F6D
:1029D00040F001001080206830F8402F22F0010202
:1029E00002802068B0F844205205FBD530F8442F0F
:1029F00022F4806202800020236831F8102023F83E
:102A00002020401CC0B20828F6D3206830F8401FB0
:102A100041F008010180206830F8441F21F4006172
:102A20000180206830F8401F41F0040101802046F9
:102A300000F0E0F81FBD810509D5206830F8441F7B
:102A400021F400710180204600F09DF81FBDC005F3
:102A5000FCD5206830F8441F21F4807101801FBD2F
:102A60002DE9F041040004D094F89102002518B13A
:102A700007E00120BDE8F08184F89052204600F084
:102A80004DF8032084F891026571206802F074FB10
:102A900094E80F0002F0DAFA022698BB00212068C1
:102AA00002F062FE70BB002001270BE000EB80010A
:102AB00004EBC1014F740874CD740D624D62401C6B
:102AC000C0B28D6221798142F0D8002012E000BFAF
:102AD00000EB800104EBC10181F8515181F85001F4
:102AE00081F85351C1F86051C1F86451401CC0B223
:102AF000C1F8685121798142EAD894E80F0002F0C8
:102B000032FB10B184F89162B3E7657384F8917277
:102B1000206802F026FB0020ACE7000008B5006842
:102B20000B49884212D10B48C16941F40001C161CF
:102B3000C069002200F40000009011461420FFF745
:102B400095FBBDE808401420FFF782BB08BD0000DC
:102B5000005C00400010024070B5044680790125F9
:102B6000022801D0FFF78BF82946D4F8D40201F0EF
:102B7000F7FED4F8D402BDE8704001F0B3BED0F83F
:102B8000D40201F0D7BED0F8D40201F0DDBE10B5FA
:102B9000044690F8900201280AD0012084F890029F
:102BA0006173206802F0E2FD002084F8900210BDFD
:102BB000022010BDD0F8D42200F52671104601F095
:102BC000DBBE10B5044690F89002012810D0012019
:102BD00084F89002206802F09EFD01212046FFF754
:102BE00095FB206802F0BBFA002084F8900210BD2B
:102BF000022010BD10B50446D0F8D40201F0FBFE4F
:102C0000A07A002804D00348016841F00601016061
:102C100010BD000010ED00E02DE9F84305460078F6
:102C2000354CC00754D0E0690026C00008D4E069E4
:102C300040F08050E061E069012600F08050009093
:102C40002E480168C90512D40168804641F480719C
:102C50000160FFF79FFA074605E000BFFFF79AFA09
:102C6000C01B642823D8D8F80000C005F6D5206A18
:102C700010F4407021D0A98801F4407181421CD029
:102C8000206A1F49012220F440700A6000220A6075
:102C90002062C00711D0FFF77DFA074641F288385D
:102CA00008E000BFFFF776FAC11B414502D90320B7
:102CB000BDE8F883206A8007F4D5206A696820F4AB
:102CC0004070084320621EB1E06920F08050E0614E
:102CD0002878800705D56068A96820F4404008433B
:102CE00060602878C00605D56068E96820F4800037
:102CF000084360600020DBE70010024000700040E5
:102D0000400442422DE9F0470F46050061D0434E92
:102D1000306800F00700B84209D2306820F00700A0
:102D200038433060306800F00700B84251D128685D
:102D30003B4C810712D5400703D5606840F4E06042
:102D400060602878000703D5606840F460506060D8
:102D50006068A96820F0F000084360602878C00728
:102D600028D06868012810D02168022810D089076F
:102D700000292EDA616821F0030101436160FFF749
:102D800009FA804641F288390DE021688903EFE7AE
:102D90008901EDE7FFF7FEF9A0EB0801494502D9EB
:102DA0000320BDE8F0876068696800F00C00B0EBB4
:102DB000810FEFD1306800F00700B8420BD93068BE
:102DC00020F0070038433060306800F00700B84258
:102DD00001D00120E5E72878400705D56068E9685B
:102DE00020F4E060084360602878000706D560683A
:102DF000296920F4605040EAC100606000F038F8B2
:102E00006168084AC1F30311515CC8400649086073
:102E100006480068FFF7DEF90020C2E70020024004
:102E20000010024082590008700000206800002055
:102E30000448054900684968044AC1F30221515C0D
:102E4000C8407047700000200010024092590008EE
:102E50000448054900684968044AC1F3C221515C2D
:102E6000C8407047700000200010024092590008CE
:102E70000E4A51680E4801F00C03042B11D0082BA8
:102E80000FD10C48C1F38343C903C05C0AD5516814
:102E9000084AC1F34041921E515C054A5043B0FBC1
:102EA000F1F07047044948437047000000100240A9
:102EB00000127A007259000800093D002DE9F84F10
:102EC000040070D02078C04DC00749D06868C0F3B6
:102ED0008100012807D06868C0F38100022809D169
:102EE0006868C00306D52868800339D56068002863
:102EF000E7D035E06068B0F5803F0BD010B1B0F599
:102F0000A02F11D0286820F480302860286820F491
:102F1000802002E0286840F480302860606890B12A
:102F2000FFF738F906460AE0286840F48020286058
:102F3000F0E700BFFFF72EF9801B642873D82868DC
:102F40008003F7D50CE0FFF725F9064605E000BF42
:102F5000FFF720F9801B6428F0D828688003F7D495
:102F600020789A4E80074FF001094FF0000839D5BC
:102F7000686810F00C0F07D06868C0F38100022861
:102F800009D16868C00306D42868800714D5206971
:102F9000012808D110E02069B0B1C6F80090FFF711
:102FA000F9F8074605E00AE1FFF7F4F8C01B02282C
:102FB000C4D828688007F7D52868616920F0F80030
:102FC00040EAC10028600DE0C6F80080FFF7E2F893
:102FD000074604E0FFF7DEF8C01B022823D8286864
:102FE0008007F7D4207800072CD57948A169D9B19A
:102FF000C0F80090FFF7CEF8074604E0FFF7CAF8E4
:10300000C01B02280FD8686A8007F7D571484FF4B3
:10301000FA510068B0FBF1F0009000BF0098411E2B
:103020000091FAD20EE080E0C0F80080FFF7B2F81D
:10303000074604E0FFF7AEF8C01B022875D8686A9F
:103040008007F7D42078400760D5E8690027C000E2
:1030500008D4E86940F08050E861E869012700F091
:10306000805000905C480168C90513D4016883460C
:1030700041F480710160FFF78DF8824606E000BFE1
:10308000FFF788F8A0EB0A0064284ED8DBF80000B0
:10309000C005F5D5E06801280AD008B1052813D08D
:1030A000286A20F001002862286A20F0040002E06B
:1030B000286A40F001002862E06841F2883B98B13C
:1030C000FFF768F882460BE0286A40F004002862A7
:1030D000EEE700BFFFF75EF8A0EB0A0159455AD8AA
:1030E000286A8007F6D50CE0FFF754F8824605E021
:1030F000FFF750F8A0EB0A0159454CD8286A800721
:10310000F6D41FB1E86920F08050E861E06988B327
:103110006968C1F38101022944D00228C6F86080A1
:1031200004D0FFF737F8044638E034E0FFF732F810
:10313000074604E0FFF72EF8C01B02282BD82868AA
:103140008001F7D4206AB0F5803F05D16868A16896
:1031500020F4003008436860D4E908010843696836
:1031600021F4741108436860C6F86090FFF712F804
:10317000044606E025E000BFFFF70CF8001B02281C
:1031800009D828688001F7D51BE000BFFFF702F8D7
:10319000001B022802D90320BDE8F88F28688001AF
:1031A000F4D40EE00128F7D06868226A00F4803178
:1031B000914204D1616A00F47010884201D001206C
:1031C000EAE70020E8E70000001002400000424269
:1031D00080044242700000200070004070B504007E
:1031E00009D0606A002540B125616561A56294F847
:1031F000510040B10CE0012070BD6068B0F5827FE5
:10320000F4D0E561F2E784F85050204600F040F831
:10321000022084F851002068016821F0400101601B
:10322000A088218900F4827001F404410843A18937
:1032300001F400610843217C01F002010843217D73
:1032400001F001010843218B01F400710843217F43
:1032500001F03801084394F8201001F08001084380
:10326000218D01F40051084321680860A069042100
:1032700001EA1040216848602068C16921F40061BA
:10328000C1616565012084F85100002070BD000017
:1032900030B585B000240094019402940394006832
:1032A0001449884223D11448816941F480518161D5
:1032B000816901F480510491816941F004018161C7
:1032C00080690E4D00F004000490A02000900220C0
:1032D00001900320039069462846FEF775FE4020C2
:1032E000CDE90004694628460294FEF76DFE05B05C
:1032F00030BD0000003001400010024000080140D5
:1033000010B5401EB0F1807F01D3012010BD4FF0F9
:10331000E02460610F21601702F066FA0020A061CE
:1033200007202061002010BD704700000068084998
:10333000884203D101220749074806E0074988422D
:1033400005D104490122491C054800F0DFB9704746
:1033500000440040000000205802002000380140D6
:1033600010020020F8B5016804460868CA684B6975
:1033700010F00F0F4FF0000559D003F0010602F4D2
:103380009077374365D0C10705D0D10503D5616C6F
:1033900041F001016164410705D5D90703D0616C93
:1033A00041F002016164810705D5D90703D0616C42
:1033B00041F004016164010707D502F020013143A7
:1033C00003D0616C41F008016164616C00293AD05E
:1033D000800604D5900602D5204600F092FD2068B4
:1033E0004069616CC0F38010090700D460B32046C7
:1033F00000F060FD20684069400621D52068143047
:1034000050E8001F21F0400140E80012002AF5D1E9
:10341000E06BA8B16D494163E06BFEF777FD0028D2
:1034200011D0E06B416B01B0BDE8F0400847830666
:103430000FD593060DD52046BDE8F84000F061BDDC
:103440002046FFF773FFF8BD2046FFF76FFF656466
:10345000F8BD266B2023012E7CD1C6067AD5D60670
:1034600078D508684868009048694FF00206400621
:1034700040D5E16B086840680004000CE8D0A28DDC
:103480008242E5D9E085886920282DD020680C305B
:1034900050E8001F21F4807140E80012002AF5D1A5
:1034A0002068143050E8001F21F0010140E80012AC
:1034B000002AF5D12068143050E8001F21F04001A7
:1034C00040E80012002AF5D184F8423025632068D4
:1034D0000C3050E8001F21F0100140E80012002AD3
:1034E000F5D1E06BFEF7EEFC6663A08DE18D401A2E
:1034F00081B22AE0A08DE18D401A81B2E08D0028D2
:10350000A6D00029A4D022680C3252E8000F20F483
:10351000907042E80007002FF5D12068143050E881
:10352000002F22F0010240E80027002FF5D184F897
:103530004230256320680C3050E8002F22F0100242
:1035400040E80023002BF5D166632046FFF7ECFE30
:10355000F8BDFFE705062BD5150629D594F84100DF
:103560002128F5D1A068B0F5805F01D12069B0B104
:10357000206A411C2162216800784860E08C401E6E
:103580000004000CE084E3D12068C16821F08001D0
:10359000C1602068C16841F04001C160D8E7206A7D
:1035A0000088C0F308004860206A801C2062E5E7BC
:1035B0004006CDD55006CBD5CA68204622F0400241
:1035C000CA6084F8413000F0EFF8C1E7A53E00087A
:1035D00070B5040004D094F84100002510B106E055
:1035E000012070BD84F84050204600F023F82420CC
:1035F00084F841002068C16821F40051C160204670
:1036000000F0E0FC2068016921F49041016120682C
:10361000416921F02A0141612068C16841F40051EB
:10362000C1606564202084F8410084F8420065632D
:10363000002070BD70B586B00024009401940294FF
:1036400003942E4E03682E49022003222D4DB342CF
:1036500026D18B6943F480438B618B6903F48043EB
:1036600004938B6943F004038B618969039201F031
:10367000040104910102CDE9001069462846FEF7D5
:10368000A3FC2815CDE90004694628460294FEF7FC
:103690009BFC002211462520FEF7E8FD252028E0AE
:1036A000194EB34227D1CB6943F40033CB61CB69C8
:1036B00003F4003304938B6943F004038B6189693D
:1036C000039201F0040104910421CDE90010694640
:1036D0002846FEF779FC0820CDE900046946284613
:1036E0000294FEF771FC002211462620FEF7BEFD73
:1036F0002620FEF7ADFD06B070BD00000038014089
:1037000000100240000801400044004090F84230A0
:10371000202B01D00220704721B11AB1002303638E
:1037200000F0ACBC0120704700681849184A884274
:1037300012D11848B0F80011B0F80231491CC9B2D2
:103740008B4205D01278B0F80031C254A0F80011B5
:1037500001220F49104815E01049884214D1104841
:10376000B0F80011B0F80231491CC9B28B4205D043
:103770005278B0F80031C254A0F800110449012277
:10378000491C0848FFF7C2BF7047000000440040D2
:1037900000000020A0020020580200200038014054
:1037A000A4030020100200207047FEE7F0B50023BC
:1037B0000A24302537261F4611E000BFB4EB107FE6
:1037C00002D905EB107C01E006EB107C01F813C078
:1037D00001EB430C00015B1C8CF80170DBB29342DF
:1037E000ECD3F0BD3EB5002411480094019402943E
:1037F0000E498460016004730475012505614FF46E
:1038000060214460C161FEF7BBFA08B1FEF737FAE8
:103810001120CDE90005694602940548FEF732FA09
:10382000002801D0FEF72BFA3EBD00000024014025
:10383000880100202DE9F04786B000244448009418
:10384000019402940394816941F0100181618169BE
:1038500001F010010491816941F0200181618169C9
:1038600001F020010491816941F0040181618169C5
:1038700001F004010491816941F0080181618069CE
:10388000DFF8D08000F008004FF4005504900022CB
:1038900029464046FEF778FCDFF8BC90002240F253
:1038A00003114846FEF770FC012210214846FEF73E
:1038B0006BFCDFF8A8A0002247F233015046FEF768
:1038C00063FC012248F608415046FEF75DFC009576
:1038D000022601250396CDE9015469464046FEF7CC
:1038E00073FB4FF440400327CDE90007694640468B
:1038F000FEF76AFB40F21310CDE90005CDE9024660
:1039000069464846FEF760FB4FF63B40CDE90005AF
:10391000CDE9024669465046FEF756FB0420CDE944
:103920000004694650460294FEF74EFBE803CDE9D9
:10393000000769464846FEF747FB4FF47070CDE933
:10394000000769465046FEF73FFB06B0BDE8F0872A
:10395000001002400010014000080140000C01402E
:10396000104810B50E4901604FF48271416000218A
:103970008160C1604FF400720161C0E90512082244
:10398000C0E90721416281620A21C162FFF726FC7A
:10399000002803D0BDE81040FEF771B910BD00004B
:1039A00000300140B80100200C4810B50A49016000
:1039B0004FF4E1314160002181600C22C160C0E917
:1039C00004128161C161FFF703FE002803D0BDE846
:1039D0001040FEF754B910BD00380140100200201D
:1039E0000E4810B50C4901604FF4E13141604FF4CD
:1039F0008051816000214FF48062C0E903120C22E3
:103A0000C0E90521C161FFF7E3FD002803D0BDE84F
:103A10001040FEF734B910BD0044004058020020A9
:103A200010B500220F49104800F028FE08B1FEF73B
:103A300026F90E490C4801F004F808B1FEF71FF909
:103A40000B49094800F026FC08B1FEF718F90648B2
:103A500001F04CF8002803D0BDE81040FEF70FB984
:103A600010BD000004000020A80400205001002028
:103A700054000020FEE7FEE72DE9F84F044640F62B
:103A80008F7B48F60F794FF480684FF0000ABDE154
:103A9000B0F8441011F00F0539D030F8256031042A
:103AA0007ED530F8251001EA0B0141F0800120F8A5
:103AB000251005EB850004EBC00797F85C0107F5BE
:103AC000A87700286DD0F87802286BD03978226862
:103AD00032F8210048F68F73184048F2C0031843AB
:103AE00022F821003978206830F82120B0F85030D1
:103AF00052047DD5022202EBC1015A1808EB4201A3
:103B0000415A8905890D009173D03A89DDE0C906D3
:103B10002BD4018801EA090141F4004101802068A9
:103B200004F11005B0F85030217C022202EBC101F3
:103B30005A1808EB4201405AC0F30900E062616A7A
:103B40000844606200212046FEF7E1FB607B00280C
:103B50009DD0A86900289AD1607B216840F0800040
:103B6000A1F84C0084F80DA050E1018804F5A87577
:103B70000A0521D5B0F850202B78062101EBC301AE
:103B80000A4408EB4201405A04F52671C0F30903C8
:103B9000EB61EA88206801F0D1FD2068018802E02D
:103BA000AEE06EE07EE001EA0B0141F080010180B1
:103BB0002046FEF7FFFF29E10904D5D5018801EA77
:103BC0000B0141F0800101802068B0F850202B7873
:103BD000062101EBC3010A4408EB4201405A830568
:103BE0009B0DEB6110D0696971B1EA88206801E032
:103BF0005FE05DE001F0A2FDE96968690844686181
:103C000000212046FEF78CFB216808880205ABD412
:103C1000C0F301300328A7D0B1F850000844B0F831
:103C20000C14C1F30901A0F80C142A6900F20C402D
:103C30003E2A09D95109D20600D1491E02884FF403
:103C4000004343EA812109E0B2B15108D20700D014
:103C5000491C02884FF6FF7303EA81210A43028060
:103C6000216808884BF68F72104080F4405048F26B
:103C7000800210430880C9E0018841F400410180BE
:103C8000EEE72068B0F850203B78062101EBC30135
:103C90000A4408EB4201415A8905890D009118D068
:103CA000FA8812E0324639462046FEF795FB00902E
:103CB0000FE0062202EBC1015A1808EB4201415AFB
:103CC0008905890D009104D07A897969009B01F0FA
:103CD00035FDF86900990844F8617969009808444D
:103CE0007861B86918B139690098814204D9397886
:103CF0002046FEF715FB03E03946206801F09AFAEA
:103D000030062ED505EB850004EBC001206830F8A5
:103D1000252002EA090242F4004220F82520C87C4E
:103D2000103101281ED0F0056CD42068B0F8503056
:103D30000D78022202EBC5021A4408EB4202805AB7
:103D40008A69C0F30900824255D9121A8A6154D097
:103D50004A6902444A61CA691044C861206801F096
:103D600069FA53E0C1F818A0087B524608B3700600
:103D700020D5487810B1012812D03AE02068B0F878
:103D8000502010440A7800EB0210B0F80424C2F36B
:103D90000902A0F80424B0F8042442F4004206E02A
:103DA0002068B0F8503018440B7800EB0310A0F8EE
:103DB00004241EE04B78206813B1012B11D018E0C9
:103DC000B0F8502010440A7800EB0210B0F80C2430
:103DD000C2F30902A0F80C24B0F80C2442F400420B
:103DE00005E0B0F8503018440B7800EB0310A0F851
:103DF0000C24097802E0C1F818A0E9B22046FEF7C9
:103E000086FA03E032462046FEF759FB2068B0F8F8
:103E1000441009043FF53CAE0020BDE8F88F704720
:103E20007047FEF7BDB930B593B028216846FCF75E
:103E30005BFA14210AA8FCF757FA002401200F941A
:103E400010941194010412948DE8130004904FF41F
:103E5000E010CDE90810022507956846FFF72EF817
:103E600008B172B6FEE70F20CDE90A054FF4806075
:103E7000CDE90C4002210AA80E94FEF743FF08B1D9
:103E800072B6FEE712200F904FF40040CDE9110406
:103E90000FA8FEF7C1FE002801D072B6FEE713B0EE
:103EA00030BD704710B5406A0021C185C184FFF75D
:103EB0003DFA10BD01680C3151E8002F22F49072D8
:103EC00041E80023002BF5D10168143151E8002F9F
:103ED00022F0010241E80023002BF5D1016B0129FA
:103EE00009D101680C3151E8002F22F0100241E89D
:103EF0000023002BF5D1202180F84210002101631E
:103F0000704708B590F84210222901D0022008BD60
:103F100082684FF480539A4201D1016921B1816ACC
:103F20009A421BD04AB10AE00268816A5268C2F321
:103F300008020A80816A891C08E0026972B102687D
:103F4000526802F07F020A70816A491C8162C18D49
:103F5000491E0904090CC18503D01BE002685268A0
:103F6000F1E70168CA6822F02002CA600168CA68E5
:103F700022F48072CA6001684A6922F001024A6133
:103F8000202180F8421000214163026B012A03D0F6
:103F9000FFF7CAFB002008BD016301680C3151E83E
:103FA000002F22F0100241E80023002BF5D1016818
:103FB0000A68D20602D50A6849680091818DFFF728
:103FC000B3F9E7E770B5044600680169E26821F4D7
:103FD0004051114301612169A068084361690843A8
:103FE0002168CA6841F20C639A430243CA602068A0
:103FF0004169A26921F44071114341611E49206861
:10400000884202D1FEF724FF01E0FEF711FF00EB2A
:10401000C00101EB0012606864218000B2FBF0F384
:10402000B3FBF1F36FF018067343B2FBF0F5B2FB8C
:10403000F0F605EB8305322303EB0515B5FBF1F52F
:10404000B6FBF1F605F0F00505EB0615B2FBF0F650
:10405000B2FBF0F0B0FBF1F06FF01802504306EB4A
:10406000800003EB0010B0FBF1F0216800F00F00BE
:104070002844886070BD000000380140816282855C
:10408000C28500214164222180F84210016921B1DA
:104090000168CA6842F48072CA6001684A6942F0E5
:1040A00001024A610068C16841F02001C16000203E
:1040B000704700000148FFF755B9000010020020CA
:1040C0000148FFF74FB90000580200202DE9F041E8
:1040D000D0F8C032D0F8B822CAB101EB810500EBAC
:1040E00085040026E7693FB103EBC5031B6AB7FBF4
:1040F000F3F503FB157323B1C2F814620020BDE889
:10410000F08100231A46E66100F07EFCF6E702200B
:10411000F5E770B50546D0F8B84200F07AFBC4F870
:104120000C02D5F8B80248B1D5F8BC12D4F8040294
:10413000CA6804F503719047002070BD022070BD6D
:1041400070B504460026812100F0B6FA0025012151
:104150002046E56200F0B0FA82212046C4F86C5196
:1041600000F0AAFA2564D4F8B80248B1D4F8BC0229
:1041700004F52E7440688047206800F014FE256026
:10418000304670BD10B5D0E9AE4159B194F8000287
:10419000FF2807D08B6894F8012221469847FF201A
:1041A00084F80002002010BD0A21018000487047F9
:1041B000780000204321018000487047C80000209B
:1041C0004321018000487047840000204321018082
:1041D000004870470C0100202DE9F04104460026FC
:1041E000007C4FF40077012590B340230222812107
:1041F000204600F062FB4023E562022201212046B6
:1042000000F05BFB0823032282212046C4F86C5196
:1042100000F053FB4FF40770256400F0C5FDC4F8AF
:10422000B802F8B10546D4F8BC0200688047002007
:10423000C5F81402C5F81802207CD5F8042298B1FC
:1042400040230121204600F044FB3046BDE8F081C8
:10425000FFE73B4602228121204600F02EFB3B4631
:10426000E562CAE70126F0E73B46EAE710B5D0F879
:10427000B81269B1027C002AD1F8042205D040238B
:10428000012100F026FB002010BD4FF40073F7E77A
:10429000022010BD02460220002902D00020C2F8F0
:1042A000BC127047D0F8B802C0F804120020704762
:1042B000D0F8B802C0F81022C0F8081200207047E9
:1042C0002DE9FC410546D0F8B87200208DF80000B9
:1042D000ADF80400064608780C4610F0600121D0C5
:1042E00020293BD1E288AAB10006607807D5D5F82D
:1042F000BC128B6839469847E288394626E087F831
:104300000002A07987F80102E2883946284600F0C9
:104310006AF828E0D5F8BC12607800228B68214644
:10432000984720E0607820B10A2809D00B2815D1E1
:1043300010E095F89C02032810D1022201A905E0A3
:1043400095F89C02032809D101226946284600F00D
:1043500064F808E095F89C02032804D0214628461A
:1043600000F036F802263046BDE8FC8110B5D0F8E2
:10437000B812A1B1D1F814220AB1012010BD012256
:10438000C1F81422D1F810220263B1F8102293B2BE
:10439000D1F80822812100F037FB002010BD022057
:1043A00010BD10B5D0F8B42252689047002010BD5F
:1043B000134610B50A46002100F08BFA002010BD0C
:1043C000134610B50A46002100F01EFB002010BD68
:1043D00010B50446802100F0FCFA2046BDE81040EC
:1043E000002100F0F6BA10B50323C0F85C21C0F834
:1043F0009432C0F8602113460A46002100F069FAA1
:10440000002010BD10B505210023C0F894121A46F3
:10441000194600F05EFA002010BD10B50223C261FB
:10442000C0F89432026213460A46002100F0ECFA0A
:10443000002010BD10B504210023C0F894121A46C4
:10444000194600F0E1FA002010BD000010B50A4640
:10445000024903A000F0E2F8004810BD6C070020FC
:1044600043444320436F6E66696700001220088052
:10447000004870472400002010B50A46024903A0F6
:1044800000F0CCF8004810BD6C07002043444320E6
:10449000496E7465726661636500000004200880DF
:1044A000004870472000002010B50A46024903A0CA
:1044B00000F0B4F8004810BD6C07002053544D695B
:1044C00063726F656C656374726F6E69637300000D
:1044D00010B50A46024903A000F0A0F8004810BD3C
:1044E0006C07002053544D33322056697274756145
:1044F0006C20436F6D506F727400000010B51A206D
:1045000008800A480168001D0468001D006808183A
:1045100009D008220649FFF749F90549042210315C
:104520002046FFF743F90248801E10BDE8F7FF1F41
:104530003A000020F8B504460020ADF80000488895
:104540000D46010A082948D2DFE801F0470409179F
:1045500047473C45D4F8B012207C0A6819E0207C1B
:1045600002260028D4F8B40205D0C16A68468847FC
:10457000014646703EE0816AF8E7C0B206282CD2B8
:10458000DFE800F0030A1014181CD4F8B0024268E7
:1045900005E0694690471CE0D4F8B0028268E2B1B9
:1045A000207CF6E7D4F8B002C268F8E7D4F8B0028D
:1045B0000269F4E7D4F8B0024269F0E7D4F8B00237
:1045C0008269ECE7207C40B9D4F8B402416B6846BC
:1045D000884701460EE0207C20B129462046FFF79F
:1045E000F7FEF8BDD4F8B402016B6846884701466F
:1045F00007204870BDF8000048B1EA8852B18242F5
:1046000000D90246ADF800202046FFF706FFE888F3
:104610000028E6D12046FFF70DFFF8BD70B5002356
:1046200000281ED00446002502E06D1CEDB2641C7B
:104630002678002EF9D1022404EB45041480127868
:10464000CA545B1C0322CA5400245B1C06E0CA54F3
:104650005B1CDAB28C54521CD3B2401C0278002A84
:10466000F5D170BD01004FF0000004D0012901D048
:10467000022901D0022070470120704710B580B197
:10468000D0F8B43213B10023C0F8B43209B1C0F885
:10469000B012012180F89C12027000F0BFF80020D7
:1046A00010BD022010BD10B5D0F8C002FDF767FEA6
:1046B000BDE81040FFF7D6BF10B5D0F8C002FDF737
:1046C00039FEBDE81040FFF7CDBF2DE9F041174698
:1046D000044651B1D4F8B40242691AB194F89C026C
:1046E000032851D00220BDE8F081D4F8943200258F
:1046F00004F11400022B03D0042B3AD0C3B33CE0E6
:10470000D0E903639E4207D9F11AC1608AB23946E3
:104710002046FFF755FE12E08068B0FBF3F103FB83
:10472000110199B9984211D3D4F8981288420DD248
:10473000002211462046FFF743FEC4F8985200239A
:104740001A461946204600F0C4F816E0D4F8B40220
:10475000C16829B194F89C02032801D120468847FA
:104760008021204600F035F92046FFF74BFE04E09B
:10477000FFE78021204600F02CF994F8A0020128E0
:1047800004D184F8A05201E0204690470020AAE717
:1047900070B51546044649B1D4F8B40282691AB11D
:1047A00094F89C02032830D0022070BDD4F89412F3
:1047B00004F5AA70032902D005291ED027E0D0E90C
:1047C00003218A420BD9531AC3600846834200D39F
:1047D00003469AB229462046FFF7EAFD17E0D4F8CF
:1047E000B402016929B194F89C02032801D1204642
:1047F00088472046FFF71EFE09E000200146C4F866
:104800009402204600F0E5F801E0204690470020A1
:1048100070BDD0F8C002FDF7EEBF000010B5044631
:104820001C481D49C0F8D442C4F8C00201600821E8
:1048300001710221817100218172C1720173FEF741
:104840000FF908B1FDF71BFA0022D4F8C0021823B3
:10485000114604F53074FDF73BFD582300228021FA
:104860002068FDF735FDC023002281212068FDF777
:104870002FFD4FF48873002201212068FDF728FDE9
:104880004FF48073002282212068FDF721FD002073
:1048900010BD00008C0F0020005C00400A0601F0F3
:1048A0007F01D0F8C00201EB810100EBC10001D50E
:1048B000807C704790F85201704710B51C46134633
:1048C000D0F8C0022246FDF79FFFBDE81040FFF779
:1048D000C9BE10B5D0F8C002FDF7C2FFBDE8104058
:1048E000FFF7C0BE70B50022044640231146FFF713
:1048F000E4FF40260125C4F864613346002280218C
:104900002046C4F85851FFF7D8FF6662A56184F8C5
:104910009C520020C4F894026060C4F8A402D4F849
:10492000B80228B1D4F8B40200214268204690476A
:10493000002070BD90F89C12042903D190F89D12BC
:1049400080F89C120020704710B590F89C12032943
:1049500004D1D0F8B412C96901B18847002010BD54
:1049600001740020704710B5D0F8C002FEF70FF9AF
:10497000BDE81040FFF776BE70B5044600F52A701A
:10498000054600F04AF80120C4F89402B4F8AE02DB
:10499000C4F8980294F8A80210F01F010AD0012967
:1049A0000DD0022910D000F08001204600F011F84F
:1049B000002070BD2946204600F09DF8F8E7294602
:1049C000204600F0C9F9F3E72946204600F01CF91B
:1049D000EEE710B5D0F8C002FDF759FFBDE8104072
:1049E000FFF740BE10B5D0F8C002FEF7EAF8BDE808
:1049F0001040FFF737BE90F89C1280F89D120421FA
:104A000080F89C120020704710B5D0F8C002FDF766
:104A100076FFBDE81040FFF725BE0A7802704A789D
:104A200042708A78CB7802EB032242800A794B7974
:104A300002EB032282808A79C97902EB0121C180CD
:104A400070470246002011B1C2F8B412704702202C
:104A5000704710B5D0F8B42202241AB112689047FA
:104A600000B90024204610BD70B50E461E4D897851
:104A700004462970012931D894F89C0202280BD0F1
:104A800003280FD031462046FFF7A2FC29782046A4
:104A9000BDE87040FFF785BCD9B10320616084F8A0
:104AA0009C0209E071B16068884212D0C1B2204610
:104AB000FFF777FC297861602046FFF7CAFF0228DC
:104AC0000CD006E0022084F89C0220466160FFF7CB
:104AD00068FC2046BDE87040FFF7ACBC314620467C
:104AE000BDE87040FFF774BC7400002010B5FFF7FC
:104AF00079FF002010BD2DE9F0410A78002612F060
:104B0000600208D0202A01D0402A70D1D0F8B42207
:104B1000926890476DE04B78002201250A2B66D2FF
:104B2000DFE803F0405D6557650805652C29FFF750
:104B300001FD5EE004468888D8B9C888C8B94888AD
:104B4000802816D200F07F0794F89C02032810D02A
:104B500084F89E7239462046FFF705FF2046FFF78E
:104B600069FC1FB1022084F89C0242E084F89C5248
:104B70003FE020463BE0FFF777FF3AE0CB88012B90
:104B800035D190F89C32012B04D0022B02D0032B9C
:104B90002DD104E08260012200F1080116E001221B
:104BA000011D13E090F89C22012A03D0022A01D0B3
:104BB000032A1CD1CA88022A19D1C560D0F8A412D0
:104BC00009B10321C160022200F10C01FFF725FCAD
:104BD0000FE0498801290CD1C0F8A45211E090F8E7
:104BE0009C32012B08D0022B06D0032B04D0FFF7F8
:104BF000EFFB3046BDE8F08149880129F9D1C0F8C2
:104C0000A422FFF717FCF4E72DE9F0410A46044619
:104C100010780027097910F060030AD0202B01D00A
:104C2000402B50D1D4F8B4021146836820469847EF
:104C30008FE0C0F34110012806D05078D0B301288E
:104C40002AD003283FD107E0D4F8B4021146836884
:104C50002046BDE8F041184794F89C02022802D093
:104C6000032872D10AE071B380296ED02046FFF785
:104C7000B0FE80212046FFF7ACFE6AE0508838B9CC
:104C800031B1802904D0D08810B92046FFF7A1FEA9
:104C90002046FFF7CFFB5CE094F89C020228E2D0AC
:104CA000032852D1508898BB4806F1D02046FFF720
:104CB000FAFCEDE7FFE794F89C020026022803D0F7
:104CC000032842D112E040E009B180293DD1080615
:104CD00001F07F0000EB800004EB800101D514316E
:104CE00001E001F5AA7102220E602AE0080601F037
:104CF0000F0000EB800004EB80000AD5806920B330
:104D000001F07F0000EB800004EB800514350BE020
:104D10001FE0D0F85801C0B101F07F0000EB800027
:104D200004EB800505F5AA7541B1802906D020461F
:104D3000FFF7B4FD10B10120286000E02E600222D0
:104D400029462046FFF769FB03E011462046FFF79E
:104D50003FFB3846BDE8F08170B5054608780C4643
:104D600010F0600003D0202801D0402816D195F81B
:104D70009C02012803D0022801D003280ED12079FB
:104D800001280BD8D5F8B402826828469047E188FC
:104D9000014306D12846FFF74DFB02E02846FFF706
:104DA00017FB002070BD7047004870476C0D002055
:104DB0002DE9F0470C78002630F8243048F68F12A1
:104DC0001340CA78002A78D0012A7CD0022A02D067
:104DD000032A75D0012648F28002134320F82430BC
:104DE0000D7830F8253048F68F7423402B43134359
:104DF00020F825300D7B48F2C00948F6BF734CF20D
:104E0000800A4BF68F77EDB3CD7891F800C0022D74
:104E100030F82C507DD048F68F6805EA0805154318
:104E200020F82C50B0F8505091F800C0054405EB24
:104E30000C15B1F808C02CF0010CA5F800C4B0F8AE
:104E4000505091F800C0054405EB0C15B1F80AC0AC
:104E50002CF0010CA5F808C44D78002D7ED00D78FB
:104E600030F825C05FEA4C4C07D530F825C00CEA75
:104E7000040C4CEA0A0C20F825C091F800C030F868
:104E80002C5000E022E06D0606D530F82C5025406D
:104E900045EA090520F82C50CC780D78012C30F823
:104EA000254004EA03047CD084F02003134320F857
:104EB0002530C1E001E006E002E043F400738AE738
:104EC00043F4C06387E743F4806384E74D784DB3D0
:104ED000B0F850500F78054405EB0715CF8827F040
:104EE0000107A5F800740F7830F827506D0606D535
:104EF00030F82750254045EA090520F82750CC789E
:104F0000012C07D00C7830F82410194081F02001D2
:104F100004E064E00C7830F824101940114320F8C4
:104F2000241090E0B0F850300D78034403EB0513E3
:104F3000CD8825F00105A3F80854B0F850300D785D
:104F4000034403EB0513B3F80C54C5F30905A3F8A8
:104F50000C540D6903F20C433E2D00E045E00BD9E3
:104F60004FEA551CED0601D1ACF1010C1D884FF440
:104F7000004848EA8C2C0BE035B34FEA550CED079E
:104F800001D00CF1010C1D884FF6FF7808EA8C2C3B
:104F900045EA0C051D800D7830F825305B0408D5F6
:104FA00000E046E030F82530234043EA0A0320F8C9
:104FB0002530097861B130F821303B4083F400534B
:104FC000134320F821303EE01D8845F40045E1E719
:104FD0000188394081F440511143018033E025407C
:104FE00048F2801845EA08051AE791F800C030F841
:104FF0002C506D0406D530F82C50254045EA0A05A2
:1050000020F82C5091F800C030F82C506D0606D5D1
:1050100030F82C50254045EA090520F82C500D7831
:1050200030F825403C4084F44054144320F8254097
:1050300070E7144320F825400B7830F823103940EE
:10504000114320F823103046BDE8F0870020704758
:105050002DE9F04391F80C804F780A7848F6BF7C30
:105060004BF68F7948F2800348F2C0054CF2800677
:1050700048F68F74B8F1000F28D0002F30F8227056
:105080004FEA474748D0002F05DA30F82270274012
:10509000374320F822700A7830F822707F0605D551
:1050A00030F8227027402F4320F822700D7830F816
:1050B00025202240324320F825200C7830F8242087
:1050C00002EA0C021A4320F824201AE07FB130F8DB
:1050D0002260760605D530F8226026402E4320F85F
:1050E00022600A7830F8221001EA0C010EE030F854
:1050F00022506D0405D530F822502540354320F864
:1051000022500A7830F8221001EA0901194320F8E8
:1051100022100020BDE8F083002F05DA30F822705D
:105120002740374320F822700A7830F8226076064C
:1051300005D530F8226026402E4320F822600E78F4
:1051400030F8262022402A4320F826200C7830F818
:10515000242002EA09021A4320F82420C1E7002093
:10516000704700207047012120F8401F0021018076
:10517000818001820846704730F8401F21F43F418A
:105180000180002070470020704730B50A7BB2BB19
:105190004A7848F68F7548F28004C2B10B7830F82F
:1051A0002320520607D530F823202A4048F2C005B4
:1051B0002A4320F82320CA78012A20D00A7830F820
:1051C000221048F6BF73194081F0200114E00A78DC
:1051D00030F822305B0407D530F822302B404CF2F7
:1051E00080052B4320F822300A7830F822104BF645
:1051F0008F73194081F44051214320F82210002080
:1052000030BD10B54A780978002A48F2800330F89A
:10521000212005D048F6BF74224082F0100204E03D
:105220004BF68F74224082F480521A4320F82120DA
:10523000002010BD2DE9F0470D464B78097B044650
:105240004FF0000948F68F7248F2800A4FF4004789
:105250004FF6FF78012B09D000296FD0E87802289B
:105260006DD001286CD00120BDE8F087AE692869B7
:10527000864200D9064691B1E97802291ED0286AF3
:10528000801B2862287834F820104906B4F85010A2
:10529000214401EB001073D5A0F80C6416E1B3B201
:1052A000EA882046696900F067FAB4F85000297866
:1052B000204400EB0110A0F804640DE1296A81424A
:1052C00077D9297834F82100104048F28012104331
:1052D00024F82100286A801B2862287834F82010DE
:1052E0004906697871D511B101292AD030E0B4F8A6
:1052F0005010214401EB0010B0F80C14C1F3090167
:10530000A0F80C1400F20C403E2E07D97109F206E9
:1053100000D1491E028847EA812107E04EB1710899
:10532000F20700D0491C028808EA81210A43028062
:105330000EE0018841F40041018009E0F1E020E144
:1053400095E1B4F85020111901EB0010A0F80C649D
:105350006A89B3B22046696900F00EFA6869304480
:1053600068612969286A884202D9801B286202E0A4
:105370000646C5F82090687818B101282BD032E095
:105380002FE0B4F850002978204400EB0110B0F869
:105390000414C1F30901A0F8041400F204403E2EE5
:1053A00008D97109F20600D1491E028847EA812115
:1053B00008E0A1E056B17108F20700D0491C02884C
:1053C00008EA81210A4302800DE00EE0018841F4E1
:1053D0000041018007E0B4F850002978204400EB38
:1053E0000110A0F804642A8971E011B1012927D0C5
:1053F0002DE0B4F85010214401EB0010B0F8041473
:10540000C1F30901A0F8041400F204403E2E07D9AC
:105410007109F20600D1491E028847EA812107E09E
:105420004EB17108F20700D0491C028808EA8121B8
:105430000A4302800BE0018841F40041018006E04C
:10544000B4F85010214401EB0010A0F804642A893C
:10545000B3B22046696900F08FF968693044686129
:105460002969286A884202D9801B286202E0064620
:10547000C5F82090687810B1012836D026E0B4F83D
:1054800050002978204400EB0110B0F80C14C1F34F
:105490000901A0F80C1400F20C403E2E07D9710946
:1054A000F20600D1491E028847EA812107E04EB189
:1054B0007108F20700D0491C028808EA81210A43DA
:1054C000028003E0018841F4004101806A89B3B29F
:1054D0002046696900F050F9297834F8210048F62F
:1054E000BF72104080F030000FE1B4F8501008197E
:1054F000297800EB0110CFE62A7834F8220048F62C
:105500008F63184040EA0A0024F82200B4F85000E3
:105510002A78204400EB02108BB2A0F804342A89C8
:10552000D6E7A9692869814202D9091AA96102E06E
:105530000846C5F81890B4F850102A78214401EBB9
:105540000211B1F80C24C2F30902A1F80C2401F2F3
:105550000C413E287DD94209C00600D1521E088860
:1055600047EA82220AE0088840F4004007E0420847
:10557000C00700D0521C088808EA82221043088025
:10558000BBE033BBB4F850002978204400EB011095
:10559000B0F80414C1F30901A0F80414296900F259
:1055A00004403E2907D94B09C90600D15B1E01887A
:1055B00047EA832307E041B14B08C90700D05B1CD1
:1055C000018808EA8323194302E0018841F400417D
:1055D0000180687810B1012828D030E0B4F850007C
:1055E0002978204400EB0110B0F80C14C1F3090134
:1055F000A0F80C14296900F20C403E2907D94B0988
:10560000C90600D15B1E018847EA832307E041B148
:105610004B08C90700D05B1C018808EA83231943A3
:1056200002E0018841F40041018008E0B4F8501024
:105630000819297800EB0110298AA0F80C14E869F0
:10564000C0B3297834F82100430401D5430605D4BA
:1056500000E046E044F2400318424ED134F8210005
:10566000104048F2C002104324F8210045E0A96927
:105670002869814202D9091AA96102E00846C5F8E1
:10568000189013BBB4F850102A78214401EB021192
:10569000B1F80424C2F30902A1F8042401F2044180
:1056A0003E2808D94209C30600D1521E0B8847EA9A
:1056B000822208E021E078B14208C30700D0521CE2
:1056C0000B8808EA822213430B80697800293FF493
:1056D0002EAF012909D010E00A8842F400420A8066
:1056E000F3E700287FF443AF3DE7B4F850201119E9
:1056F0002A7801EB0211A1F80C04297834F8210072
:105700004BF68F72104080F4405040EA0A0024F8B3
:1057100021000020A8E50021A0F844104FF43F41EB
:10572000A0F84010002070470148FDF7FFB80000C6
:105730008C0F0020B0F844007047000010B500EB5B
:1057400042005C0800F5806009D000BF30F8042BEF
:1057500001F8012B120A01F8012B641EF6D1DA07B9
:1057600001D00088087010BD0020704711B9802159
:10577000A0F84C100020704710B55B1C00EB4200F5
:105780005B0800F5806009D011F8012B11F8014B7E
:1057900042EA042220F8042B5B1EF5D110BD0FB4A1
:1057A000802100B5A1B023AB6846229AFAF782FDAA
:1057B00081B26846FCF74CFA21B05DF814FBFEE7B5
:1057C000490050EAC12018BF04204A0D18BF40F01C
:1057D000010040F2FF72B2EB515F08BF40F00200DF
:1057E000012808BF052070470907090E002804DBBF
:1057F00000F1E02080F80014704700F00F0000F185
:10580000E02080F8141D704730380A2801D20120AA
:105810007047002070470000FCF7CAFCFEF703FB4E
:10582000FEF708F8FEF7FCF8FDF7DCFFFEF7D8F806
:10583000FEF796F8FEF7B8F84FF4FA60FCF7B2FB03
:105840000AA0FFF7ACFF13A0FFF7A9FF19A0FFF70D
:10585000A6FF20A0FFF7A3FF4FF47A7426A0FFF75E
:105860009EFF2046FCF79EFBF8E700000D0A3D3D39
:105870003D3D3D3D3D3D3D3D3D3D3D3D3D3D3D3D58
:105880003D3D3D3D3D3D3D3D3D3D3D3D3D3D3D0D78
:105890000A00000020205531204A6967205379739F
:1058A00074656D20697320526561647921200D0A49
:1058B0000000000020205461736B20313A205553C2
:1058C00042205643502054657374204F4B21200DC5
:1058D0000A0000003D3D3D3D3D3D3D3D3D3D3D3DE2
:1058E0003D3D3D3D3D3D3D3D3D3D3D3D3D3D3D3DE8
:1058F0003D3D3D3D3D0D0A005531204865617274C6
:10590000626561743A207469636B2E2E2E0D0A0055
:1059100010B500290AD00878002807D00548784437
:10592000FBF730FD002801D0002010BD024878446C
:1059300010BD00009A0100009201000010B500297E
:105940000AD00878002807D005487844FBF71AFDEC
:10595000002801D0002010BD0248784410BD00008E
:105960008A01000082010000FBF719B9FBF74EBA6B
:10597000010202030405060708090A0B0C0D0E0FAD
:1059800010100000000000000000010203040607E0
:1059900008090000000001020304000000000000EC
:1059A0000000000030313233343536373839414267
:1059B0004344454640305800303132333435363771
:1059C000383961626364656640307800040000081D
:1059D0000000000000000002000100001030313221
:1059E0003334353637383961626364656678700000
:1059F0003031323334353637383941424344454605
:105A00005850000002400000000000A0000000000C
:105A100005400000000000C8000000000C4000002D
:105A20000000409C00000000194000000020BCBEA7
:105A30000000000034400000BFC91B8E00000004BD
:105A4000B5400000504BCFD06607E2CF0100000008
:105A50006C4100003E8251AADFEEA7340100000035
:105A6000D9420000DCB5A0E23A301F97FFFFFFFFEC
:105A7000B4450000FD25A0C8E9A3C14FFFFFFFFF0B
:105A8000FF3F00000000008000000000FF3F00001A
:105A90000000008000000000E45B0008000000201F
:105AA0008801000028010008A45C0008880100208B
:105AB00040170000840100081C00000043000000A3
:105AC000F8FFFFFF0C0000000E0000000F000000B8
:105AD0002E0000001001000043000000F8FFFFFF4F
